{
  "_format": "hh-sol-artifact-1",
  "contractName": "Color",
  "sourceName": "contracts/Color.sol",
  "abi": [
    {
      "inputs": [
        {
          "internalType": "string",
          "name": "_name",
          "type": "string"
        },
        {
          "internalType": "string",
          "name": "_symbol",
          "type": "string"
        }
      ],
      "stateMutability": "nonpayable",
      "type": "constructor"
    },
    {
      "anonymous": false,
      "inputs": [
        {
          "indexed": true,
          "internalType": "address",
          "name": "owner",
          "type": "address"
        },
        {
          "indexed": true,
          "internalType": "address",
          "name": "approved",
          "type": "address"
        },
        {
          "indexed": true,
          "internalType": "uint256",
          "name": "tokenId",
          "type": "uint256"
        }
      ],
      "name": "Approval",
      "type": "event"
    },
    {
      "anonymous": false,
      "inputs": [
        {
          "indexed": true,
          "internalType": "address",
          "name": "owner",
          "type": "address"
        },
        {
          "indexed": true,
          "internalType": "address",
          "name": "operator",
          "type": "address"
        },
        {
          "indexed": false,
          "internalType": "bool",
          "name": "approved",
          "type": "bool"
        }
      ],
      "name": "ApprovalForAll",
      "type": "event"
    },
    {
      "anonymous": false,
      "inputs": [
        {
          "indexed": true,
          "internalType": "address",
          "name": "from",
          "type": "address"
        },
        {
          "indexed": true,
          "internalType": "address",
          "name": "to",
          "type": "address"
        },
        {
          "indexed": true,
          "internalType": "uint256",
          "name": "tokenId",
          "type": "uint256"
        }
      ],
      "name": "Transfer",
      "type": "event"
    },
    {
      "inputs": [
        {
          "internalType": "address",
          "name": "to",
          "type": "address"
        },
        {
          "internalType": "uint256",
          "name": "tokenId",
          "type": "uint256"
        }
      ],
      "name": "approve",
      "outputs": [],
      "stateMutability": "nonpayable",
      "type": "function"
    },
    {
      "inputs": [
        {
          "internalType": "address",
          "name": "owner",
          "type": "address"
        }
      ],
      "name": "balanceOf",
      "outputs": [
        {
          "internalType": "uint256",
          "name": "",
          "type": "uint256"
        }
      ],
      "stateMutability": "view",
      "type": "function"
    },
    {
      "inputs": [
        {
          "internalType": "string",
          "name": "colorHex",
          "type": "string"
        },
        {
          "internalType": "string",
          "name": "_tokenURI",
          "type": "string"
        }
      ],
      "name": "createCollectible",
      "outputs": [],
      "stateMutability": "nonpayable",
      "type": "function"
    },
    {
      "inputs": [
        {
          "internalType": "uint256",
          "name": "tokenId",
          "type": "uint256"
        }
      ],
      "name": "getApproved",
      "outputs": [
        {
          "internalType": "address",
          "name": "",
          "type": "address"
        }
      ],
      "stateMutability": "view",
      "type": "function"
    },
    {
      "inputs": [
        {
          "internalType": "address",
          "name": "owner",
          "type": "address"
        },
        {
          "internalType": "address",
          "name": "operator",
          "type": "address"
        }
      ],
      "name": "isApprovedForAll",
      "outputs": [
        {
          "internalType": "bool",
          "name": "",
          "type": "bool"
        }
      ],
      "stateMutability": "view",
      "type": "function"
    },
    {
      "inputs": [],
      "name": "name",
      "outputs": [
        {
          "internalType": "string",
          "name": "",
          "type": "string"
        }
      ],
      "stateMutability": "view",
      "type": "function"
    },
    {
      "inputs": [
        {
          "internalType": "uint256",
          "name": "tokenId",
          "type": "uint256"
        }
      ],
      "name": "ownerOf",
      "outputs": [
        {
          "internalType": "address",
          "name": "",
          "type": "address"
        }
      ],
      "stateMutability": "view",
      "type": "function"
    },
    {
      "inputs": [
        {
          "internalType": "address",
          "name": "from",
          "type": "address"
        },
        {
          "internalType": "address",
          "name": "to",
          "type": "address"
        },
        {
          "internalType": "uint256",
          "name": "tokenId",
          "type": "uint256"
        }
      ],
      "name": "safeTransferFrom",
      "outputs": [],
      "stateMutability": "nonpayable",
      "type": "function"
    },
    {
      "inputs": [
        {
          "internalType": "address",
          "name": "from",
          "type": "address"
        },
        {
          "internalType": "address",
          "name": "to",
          "type": "address"
        },
        {
          "internalType": "uint256",
          "name": "tokenId",
          "type": "uint256"
        },
        {
          "internalType": "bytes",
          "name": "_data",
          "type": "bytes"
        }
      ],
      "name": "safeTransferFrom",
      "outputs": [],
      "stateMutability": "nonpayable",
      "type": "function"
    },
    {
      "inputs": [
        {
          "internalType": "address",
          "name": "operator",
          "type": "address"
        },
        {
          "internalType": "bool",
          "name": "approved",
          "type": "bool"
        }
      ],
      "name": "setApprovalForAll",
      "outputs": [],
      "stateMutability": "nonpayable",
      "type": "function"
    },
    {
      "inputs": [
        {
          "internalType": "bytes4",
          "name": "interfaceId",
          "type": "bytes4"
        }
      ],
      "name": "supportsInterface",
      "outputs": [
        {
          "internalType": "bool",
          "name": "",
          "type": "bool"
        }
      ],
      "stateMutability": "view",
      "type": "function"
    },
    {
      "inputs": [],
      "name": "symbol",
      "outputs": [
        {
          "internalType": "string",
          "name": "",
          "type": "string"
        }
      ],
      "stateMutability": "view",
      "type": "function"
    },
    {
      "inputs": [],
      "name": "tokenCounter",
      "outputs": [
        {
          "internalType": "uint256",
          "name": "",
          "type": "uint256"
        }
      ],
      "stateMutability": "view",
      "type": "function"
    },
    {
      "inputs": [
        {
          "internalType": "uint256",
          "name": "tokenId",
          "type": "uint256"
        }
      ],
      "name": "tokenURI",
      "outputs": [
        {
          "internalType": "string",
          "name": "",
          "type": "string"
        }
      ],
      "stateMutability": "view",
      "type": "function"
    },
    {
      "inputs": [
        {
          "internalType": "address",
          "name": "from",
          "type": "address"
        },
        {
          "internalType": "address",
          "name": "to",
          "type": "address"
        },
        {
          "internalType": "uint256",
          "name": "tokenId",
          "type": "uint256"
        }
      ],
      "name": "transferFrom",
      "outputs": [],
      "stateMutability": "nonpayable",
      "type": "function"
    }
  ],
  "bytecode": "0x60806040523480156200001157600080fd5b5060405162002b3938038062002b3983398181016040528101906200003791906200019f565b81818160009080519060200190620000519291906200007d565b5080600190805190602001906200006a9291906200007d565b5050506000600681905550505062000382565b8280546200008b90620002a7565b90600052602060002090601f016020900481019282620000af5760008555620000fb565b82601f10620000ca57805160ff1916838001178555620000fb565b82800160010185558215620000fb579182015b82811115620000fa578251825591602001919060010190620000dd565b5b5090506200010a91906200010e565b5090565b5b80821115620001295760008160009055506001016200010f565b5090565b6000620001446200013e846200023b565b62000212565b9050828152602081018484840111156200015d57600080fd5b6200016a84828562000271565b509392505050565b600082601f8301126200018457600080fd5b8151620001968482602086016200012d565b91505092915050565b60008060408385031215620001b357600080fd5b600083015167ffffffffffffffff811115620001ce57600080fd5b620001dc8582860162000172565b925050602083015167ffffffffffffffff811115620001fa57600080fd5b620002088582860162000172565b9150509250929050565b60006200021e62000231565b90506200022c8282620002dd565b919050565b6000604051905090565b600067ffffffffffffffff82111562000259576200025862000342565b5b620002648262000371565b9050602081019050919050565b60005b838110156200029157808201518184015260208101905062000274565b83811115620002a1576000848401525b50505050565b60006002820490506001821680620002c057607f821691505b60208210811415620002d757620002d662000313565b5b50919050565b620002e88262000371565b810181811067ffffffffffffffff821117156200030a576200030962000342565b5b80604052505050565b7f4e487b7100000000000000000000000000000000000000000000000000000000600052602260045260246000fd5b7f4e487b7100000000000000000000000000000000000000000000000000000000600052604160045260246000fd5b6000601f19601f8301169050919050565b6127a780620003926000396000f3fe608060405234801561001057600080fd5b50600436106100f55760003560e01c806370a0823111610097578063c87b56dd11610066578063c87b56dd14610282578063d082e381146102b2578063d2559e99146102d0578063e985e9c5146102ec576100f5565b806370a08231146101fc57806395d89b411461022c578063a22cb4651461024a578063b88d4fde14610266576100f5565b8063095ea7b3116100d3578063095ea7b31461017857806323b872dd1461019457806342842e0e146101b05780636352211e146101cc576100f5565b806301ffc9a7146100fa57806306fdde031461012a578063081812fc14610148575b600080fd5b610114600480360381019061010f9190611991565b61031c565b6040516101219190611d8b565b60405180910390f35b6101326103fe565b60405161013f9190611da6565b60405180910390f35b610162600480360381019061015d9190611a4f565b610490565b60405161016f9190611d24565b60405180910390f35b610192600480360381019061018d9190611955565b610515565b005b6101ae60048036038101906101a9919061184f565b61062d565b005b6101ca60048036038101906101c5919061184f565b61068d565b005b6101e660048036038101906101e19190611a4f565b6106ad565b6040516101f39190611d24565b60405180910390f35b610216600480360381019061021191906117ea565b61075f565b6040516102239190611fa8565b60405180910390f35b610234610817565b6040516102419190611da6565b60405180910390f35b610264600480360381019061025f9190611919565b6108a9565b005b610280600480360381019061027b919061189e565b610a2a565b005b61029c60048036038101906102979190611a4f565b610a8c565b6040516102a99190611da6565b60405180910390f35b6102ba610b7f565b6040516102c79190611fa8565b60405180910390f35b6102ea60048036038101906102e591906119e3565b610b85565b005b61030660048036038101906103019190611813565b610be3565b6040516103139190611d8b565b60405180910390f35b60007f80ac58cd000000000000000000000000000000000000000000000000000000007bffffffffffffffffffffffffffffffffffffffffffffffffffffffff1916827bffffffffffffffffffffffffffffffffffffffffffffffffffffffff191614806103e757507f5b5e139f000000000000000000000000000000000000000000000000000000007bffffffffffffffffffffffffffffffffffffffffffffffffffffffff1916827bffffffffffffffffffffffffffffffffffffffffffffffffffffffff1916145b806103f757506103f682610c77565b5b9050919050565b60606000805461040d906121c2565b80601f0160208091040260200160405190810160405280929190818152602001828054610439906121c2565b80156104865780601f1061045b57610100808354040283529160200191610486565b820191906000526020600020905b81548152906001019060200180831161046957829003601f168201915b5050505050905090565b600061049b82610ce1565b6104da576040517f08c379a00000000000000000000000000000000000000000000000000000000081526004016104d190611f08565b60405180910390fd5b6004600083815260200190815260200160002060009054906101000a900473ffffffffffffffffffffffffffffffffffffffff169050919050565b6000610520826106ad565b90508073ffffffffffffffffffffffffffffffffffffffff168373ffffffffffffffffffffffffffffffffffffffff161415610591576040517f08c379a000000000000000000000000000000000000000000000000000000000815260040161058890611f48565b60405180910390fd5b8073ffffffffffffffffffffffffffffffffffffffff166105b0610d4d565b73ffffffffffffffffffffffffffffffffffffffff1614806105df57506105de816105d9610d4d565b610be3565b5b61061e576040517f08c379a000000000000000000000000000000000000000000000000000000000815260040161061590611e68565b60405180910390fd5b6106288383610d55565b505050565b61063e610638610d4d565b82610e0e565b61067d576040517f08c379a000000000000000000000000000000000000000000000000000000000815260040161067490611f68565b60405180910390fd5b610688838383610eec565b505050565b6106a883838360405180602001604052806000815250610a2a565b505050565b6000806002600084815260200190815260200160002060009054906101000a900473ffffffffffffffffffffffffffffffffffffffff169050600073ffffffffffffffffffffffffffffffffffffffff168173ffffffffffffffffffffffffffffffffffffffff161415610756576040517f08c379a000000000000000000000000000000000000000000000000000000000815260040161074d90611ea8565b60405180910390fd5b80915050919050565b60008073ffffffffffffffffffffffffffffffffffffffff168273ffffffffffffffffffffffffffffffffffffffff1614156107d0576040517f08c379a00000000000000000000000000000000000000000000000000000000081526004016107c790611e88565b60405180910390fd5b600360008373ffffffffffffffffffffffffffffffffffffffff1673ffffffffffffffffffffffffffffffffffffffff168152602001908152602001600020549050919050565b606060018054610826906121c2565b80601f0160208091040260200160405190810160405280929190818152602001828054610852906121c2565b801561089f5780601f106108745761010080835404028352916020019161089f565b820191906000526020600020905b81548152906001019060200180831161088257829003601f168201915b5050505050905090565b6108b1610d4d565b73ffffffffffffffffffffffffffffffffffffffff168273ffffffffffffffffffffffffffffffffffffffff16141561091f576040517f08c379a000000000000000000000000000000000000000000000000000000000815260040161091690611e28565b60405180910390fd5b806005600061092c610d4d565b73ffffffffffffffffffffffffffffffffffffffff1673ffffffffffffffffffffffffffffffffffffffff16815260200190815260200160002060008473ffffffffffffffffffffffffffffffffffffffff1673ffffffffffffffffffffffffffffffffffffffff16815260200190815260200160002060006101000a81548160ff0219169083151502179055508173ffffffffffffffffffffffffffffffffffffffff166109d9610d4d565b73ffffffffffffffffffffffffffffffffffffffff167f17307eab39ab6107e8899845ad3d59bd9653f200f220920489ca2b5937696c3183604051610a1e9190611d8b565b60405180910390a35050565b610a3b610a35610d4d565b83610e0e565b610a7a576040517f08c379a0000000000000000000000000000000000000000000000000000000008152600401610a7190611f68565b60405180910390fd5b610a8684848484611148565b50505050565b6060610a9782610ce1565b610ad6576040517f08c379a0000000000000000000000000000000000000000000000000000000008152600401610acd90611f88565b60405180910390fd5b6000600860008481526020019081526020016000208054610af6906121c2565b80601f0160208091040260200160405190810160405280929190818152602001828054610b22906121c2565b8015610b6f5780601f10610b4457610100808354040283529160200191610b6f565b820191906000526020600020905b815481529060010190602001808311610b5257829003601f168201915b5050505050905080915050919050565b60065481565b610b91336006546111a4565b610b9d600654826111c2565b816007600060065481526020019081526020016000209080519060200190610bc692919061160e565b5060066000815480929190610bda90612225565b91905055505050565b6000600560008473ffffffffffffffffffffffffffffffffffffffff1673ffffffffffffffffffffffffffffffffffffffff16815260200190815260200160002060008373ffffffffffffffffffffffffffffffffffffffff1673ffffffffffffffffffffffffffffffffffffffff16815260200190815260200160002060009054906101000a900460ff16905092915050565b60007f01ffc9a7000000000000000000000000000000000000000000000000000000007bffffffffffffffffffffffffffffffffffffffffffffffffffffffff1916827bffffffffffffffffffffffffffffffffffffffffffffffffffffffff1916149050919050565b60008073ffffffffffffffffffffffffffffffffffffffff166002600084815260200190815260200160002060009054906101000a900473ffffffffffffffffffffffffffffffffffffffff1673ffffffffffffffffffffffffffffffffffffffff1614159050919050565b600033905090565b816004600083815260200190815260200160002060006101000a81548173ffffffffffffffffffffffffffffffffffffffff021916908373ffffffffffffffffffffffffffffffffffffffff160217905550808273ffffffffffffffffffffffffffffffffffffffff16610dc8836106ad565b73ffffffffffffffffffffffffffffffffffffffff167f8c5be1e5ebec7d5bd14f71427d1e84f3dd0314c0f7b2291e5b200ac8c7c3b92560405160405180910390a45050565b6000610e1982610ce1565b610e58576040517f08c379a0000000000000000000000000000000000000000000000000000000008152600401610e4f90611e48565b60405180910390fd5b6000610e63836106ad565b90508073ffffffffffffffffffffffffffffffffffffffff168473ffffffffffffffffffffffffffffffffffffffff161480610ed257508373ffffffffffffffffffffffffffffffffffffffff16610eba84610490565b73ffffffffffffffffffffffffffffffffffffffff16145b80610ee35750610ee28185610be3565b5b91505092915050565b8273ffffffffffffffffffffffffffffffffffffffff16610f0c826106ad565b73ffffffffffffffffffffffffffffffffffffffff1614610f62576040517f08c379a0000000000000000000000000000000000000000000000000000000008152600401610f5990611f28565b60405180910390fd5b600073ffffffffffffffffffffffffffffffffffffffff168273ffffffffffffffffffffffffffffffffffffffff161415610fd2576040517f08c379a0000000000000000000000000000000000000000000000000000000008152600401610fc990611e08565b60405180910390fd5b610fdd838383611236565b610fe8600082610d55565b6001600360008573ffffffffffffffffffffffffffffffffffffffff1673ffffffffffffffffffffffffffffffffffffffff168152602001908152602001600020600082825461103891906120d8565b925050819055506001600360008473ffffffffffffffffffffffffffffffffffffffff1673ffffffffffffffffffffffffffffffffffffffff168152602001908152602001600020600082825461108f9190612082565b92505081905550816002600083815260200190815260200160002060006101000a81548173ffffffffffffffffffffffffffffffffffffffff021916908373ffffffffffffffffffffffffffffffffffffffff160217905550808273ffffffffffffffffffffffffffffffffffffffff168473ffffffffffffffffffffffffffffffffffffffff167fddf252ad1be2c89b69c2b068fc378daa952ba7f163c4a11628f55a4df523b3ef60405160405180910390a4505050565b611153848484610eec565b61115f8484848461123b565b61119e576040517f08c379a000000000000000000000000000000000000000000000000000000000815260040161119590611dc8565b60405180910390fd5b50505050565b6111be8282604051806020016040528060008152506113d2565b5050565b6111cb82610ce1565b61120a576040517f08c379a000000000000000000000000000000000000000000000000000000000815260040161120190611ec8565b60405180910390fd5b8060086000848152602001908152602001600020908051906020019061123192919061160e565b505050565b505050565b600061125c8473ffffffffffffffffffffffffffffffffffffffff1661142d565b156113c5578373ffffffffffffffffffffffffffffffffffffffff1663150b7a02611285610d4d565b8786866040518563ffffffff1660e01b81526004016112a79493929190611d3f565b602060405180830381600087803b1580156112c157600080fd5b505af19250505080156112f257506040513d601f19601f820116820180604052508101906112ef91906119ba565b60015b611375573d8060008114611322576040519150601f19603f3d011682016040523d82523d6000602084013e611327565b606091505b5060008151141561136d576040517f08c379a000000000000000000000000000000000000000000000000000000000815260040161136490611dc8565b60405180910390fd5b805181602001fd5b63150b7a0260e01b7bffffffffffffffffffffffffffffffffffffffffffffffffffffffff1916817bffffffffffffffffffffffffffffffffffffffffffffffffffffffff1916149150506113ca565b600190505b949350505050565b6113dc8383611440565b6113e9600084848461123b565b611428576040517f08c379a000000000000000000000000000000000000000000000000000000000815260040161141f90611dc8565b60405180910390fd5b505050565b600080823b905060008111915050919050565b600073ffffffffffffffffffffffffffffffffffffffff168273ffffffffffffffffffffffffffffffffffffffff1614156114b0576040517f08c379a00000000000000000000000000000000000000000000000000000000081526004016114a790611ee8565b60405180910390fd5b6114b981610ce1565b156114f9576040517f08c379a00000000000000000000000000000000000000000000000000000000081526004016114f090611de8565b60405180910390fd5b61150560008383611236565b6001600360008473ffffffffffffffffffffffffffffffffffffffff1673ffffffffffffffffffffffffffffffffffffffff16815260200190815260200160002060008282546115559190612082565b92505081905550816002600083815260200190815260200160002060006101000a81548173ffffffffffffffffffffffffffffffffffffffff021916908373ffffffffffffffffffffffffffffffffffffffff160217905550808273ffffffffffffffffffffffffffffffffffffffff16600073ffffffffffffffffffffffffffffffffffffffff167fddf252ad1be2c89b69c2b068fc378daa952ba7f163c4a11628f55a4df523b3ef60405160405180910390a45050565b82805461161a906121c2565b90600052602060002090601f01602090048101928261163c5760008555611683565b82601f1061165557805160ff1916838001178555611683565b82800160010185558215611683579182015b82811115611682578251825591602001919060010190611667565b5b5090506116909190611694565b5090565b5b808211156116ad576000816000905550600101611695565b5090565b60006116c46116bf84611fe8565b611fc3565b9050828152602081018484840111156116dc57600080fd5b6116e7848285612180565b509392505050565b60006117026116fd84612019565b611fc3565b90508281526020810184848401111561171a57600080fd5b611725848285612180565b509392505050565b60008135905061173c81612715565b92915050565b6000813590506117518161272c565b92915050565b60008135905061176681612743565b92915050565b60008151905061177b81612743565b92915050565b600082601f83011261179257600080fd5b81356117a28482602086016116b1565b91505092915050565b600082601f8301126117bc57600080fd5b81356117cc8482602086016116ef565b91505092915050565b6000813590506117e48161275a565b92915050565b6000602082840312156117fc57600080fd5b600061180a8482850161172d565b91505092915050565b6000806040838503121561182657600080fd5b60006118348582860161172d565b92505060206118458582860161172d565b9150509250929050565b60008060006060848603121561186457600080fd5b60006118728682870161172d565b93505060206118838682870161172d565b9250506040611894868287016117d5565b9150509250925092565b600080600080608085870312156118b457600080fd5b60006118c28782880161172d565b94505060206118d38782880161172d565b93505060406118e4878288016117d5565b925050606085013567ffffffffffffffff81111561190157600080fd5b61190d87828801611781565b91505092959194509250565b6000806040838503121561192c57600080fd5b600061193a8582860161172d565b925050602061194b85828601611742565b9150509250929050565b6000806040838503121561196857600080fd5b60006119768582860161172d565b9250506020611987858286016117d5565b9150509250929050565b6000602082840312156119a357600080fd5b60006119b184828501611757565b91505092915050565b6000602082840312156119cc57600080fd5b60006119da8482850161176c565b91505092915050565b600080604083850312156119f657600080fd5b600083013567ffffffffffffffff811115611a1057600080fd5b611a1c858286016117ab565b925050602083013567ffffffffffffffff811115611a3957600080fd5b611a45858286016117ab565b9150509250929050565b600060208284031215611a6157600080fd5b6000611a6f848285016117d5565b91505092915050565b611a818161210c565b82525050565b611a908161211e565b82525050565b6000611aa18261204a565b611aab8185612060565b9350611abb81856020860161218f565b611ac4816122fb565b840191505092915050565b6000611ada82612055565b611ae48185612071565b9350611af481856020860161218f565b611afd816122fb565b840191505092915050565b6000611b15603283612071565b9150611b208261230c565b604082019050919050565b6000611b38601c83612071565b9150611b438261235b565b602082019050919050565b6000611b5b602483612071565b9150611b6682612384565b604082019050919050565b6000611b7e601983612071565b9150611b89826123d3565b602082019050919050565b6000611ba1602c83612071565b9150611bac826123fc565b604082019050919050565b6000611bc4603883612071565b9150611bcf8261244b565b604082019050919050565b6000611be7602a83612071565b9150611bf28261249a565b604082019050919050565b6000611c0a602983612071565b9150611c15826124e9565b604082019050919050565b6000611c2d602e83612071565b9150611c3882612538565b604082019050919050565b6000611c50602083612071565b9150611c5b82612587565b602082019050919050565b6000611c73602c83612071565b9150611c7e826125b0565b604082019050919050565b6000611c96602983612071565b9150611ca1826125ff565b604082019050919050565b6000611cb9602183612071565b9150611cc48261264e565b604082019050919050565b6000611cdc603183612071565b9150611ce78261269d565b604082019050919050565b6000611cff601f83612071565b9150611d0a826126ec565b602082019050919050565b611d1e81612176565b82525050565b6000602082019050611d396000830184611a78565b92915050565b6000608082019050611d546000830187611a78565b611d616020830186611a78565b611d6e6040830185611d15565b8181036060830152611d808184611a96565b905095945050505050565b6000602082019050611da06000830184611a87565b92915050565b60006020820190508181036000830152611dc08184611acf565b905092915050565b60006020820190508181036000830152611de181611b08565b9050919050565b60006020820190508181036000830152611e0181611b2b565b9050919050565b60006020820190508181036000830152611e2181611b4e565b9050919050565b60006020820190508181036000830152611e4181611b71565b9050919050565b60006020820190508181036000830152611e6181611b94565b9050919050565b60006020820190508181036000830152611e8181611bb7565b9050919050565b60006020820190508181036000830152611ea181611bda565b9050919050565b60006020820190508181036000830152611ec181611bfd565b9050919050565b60006020820190508181036000830152611ee181611c20565b9050919050565b60006020820190508181036000830152611f0181611c43565b9050919050565b60006020820190508181036000830152611f2181611c66565b9050919050565b60006020820190508181036000830152611f4181611c89565b9050919050565b60006020820190508181036000830152611f6181611cac565b9050919050565b60006020820190508181036000830152611f8181611ccf565b9050919050565b60006020820190508181036000830152611fa181611cf2565b9050919050565b6000602082019050611fbd6000830184611d15565b92915050565b6000611fcd611fde565b9050611fd982826121f4565b919050565b6000604051905090565b600067ffffffffffffffff821115612003576120026122cc565b5b61200c826122fb565b9050602081019050919050565b600067ffffffffffffffff821115612034576120336122cc565b5b61203d826122fb565b9050602081019050919050565b600081519050919050565b600081519050919050565b600082825260208201905092915050565b600082825260208201905092915050565b600061208d82612176565b915061209883612176565b9250827fffffffffffffffffffffffffffffffffffffffffffffffffffffffffffffffff038211156120cd576120cc61226e565b5b828201905092915050565b60006120e382612176565b91506120ee83612176565b9250828210156121015761210061226e565b5b828203905092915050565b600061211782612156565b9050919050565b60008115159050919050565b60007fffffffff0000000000000000000000000000000000000000000000000000000082169050919050565b600073ffffffffffffffffffffffffffffffffffffffff82169050919050565b6000819050919050565b82818337600083830152505050565b60005b838110156121ad578082015181840152602081019050612192565b838111156121bc576000848401525b50505050565b600060028204905060018216806121da57607f821691505b602082108114156121ee576121ed61229d565b5b50919050565b6121fd826122fb565b810181811067ffffffffffffffff8211171561221c5761221b6122cc565b5b80604052505050565b600061223082612176565b91507fffffffffffffffffffffffffffffffffffffffffffffffffffffffffffffffff8214156122635761226261226e565b5b600182019050919050565b7f4e487b7100000000000000000000000000000000000000000000000000000000600052601160045260246000fd5b7f4e487b7100000000000000000000000000000000000000000000000000000000600052602260045260246000fd5b7f4e487b7100000000000000000000000000000000000000000000000000000000600052604160045260246000fd5b6000601f19601f8301169050919050565b7f4552433732313a207472616e7366657220746f206e6f6e20455243373231526560008201527f63656976657220696d706c656d656e7465720000000000000000000000000000602082015250565b7f4552433732313a20746f6b656e20616c7265616479206d696e74656400000000600082015250565b7f4552433732313a207472616e7366657220746f20746865207a65726f2061646460008201527f7265737300000000000000000000000000000000000000000000000000000000602082015250565b7f4552433732313a20617070726f766520746f2063616c6c657200000000000000600082015250565b7f4552433732313a206f70657261746f7220717565727920666f72206e6f6e657860008201527f697374656e7420746f6b656e0000000000000000000000000000000000000000602082015250565b7f4552433732313a20617070726f76652063616c6c6572206973206e6f74206f7760008201527f6e6572206e6f7220617070726f76656420666f7220616c6c0000000000000000602082015250565b7f4552433732313a2062616c616e636520717565727920666f7220746865207a6560008201527f726f206164647265737300000000000000000000000000000000000000000000602082015250565b7f4552433732313a206f776e657220717565727920666f72206e6f6e657869737460008201527f656e7420746f6b656e0000000000000000000000000000000000000000000000602082015250565b7f45524337323155524953746f726167653a2055524920736574206f66206e6f6e60008201527f6578697374656e7420746f6b656e000000000000000000000000000000000000602082015250565b7f4552433732313a206d696e7420746f20746865207a65726f2061646472657373600082015250565b7f4552433732313a20617070726f76656420717565727920666f72206e6f6e657860008201527f697374656e7420746f6b656e0000000000000000000000000000000000000000602082015250565b7f4552433732313a207472616e73666572206f6620746f6b656e2074686174206960008201527f73206e6f74206f776e0000000000000000000000000000000000000000000000602082015250565b7f4552433732313a20617070726f76616c20746f2063757272656e74206f776e6560008201527f7200000000000000000000000000000000000000000000000000000000000000602082015250565b7f4552433732313a207472616e736665722063616c6c6572206973206e6f74206f60008201527f776e6572206e6f7220617070726f766564000000000000000000000000000000602082015250565b7f55524920517565727920666f72206e6f6e6578697374656e7420746f6b656e00600082015250565b61271e8161210c565b811461272957600080fd5b50565b6127358161211e565b811461274057600080fd5b50565b61274c8161212a565b811461275757600080fd5b50565b61276381612176565b811461276e57600080fd5b5056fea264697066735822122061dc0ec0bbcfcc61819c9ed7437e4fa6a89a041521934c8782a28a58f025a3be64736f6c63430008040033",
  "linkReferences": {},
  "deployedLinkReferences": {}
}